:020000020000FC
:02000000F8C046
:100010003CC141888A64208266804087658443426F
:1000200067868D626021618163898B8CAFA7A3A1F4
:10003000A0B0B8BCBEBF771F0D3D4F475E174458F8
:10004000570E55151D6773055A0F1C2A2B143B6C50
:10005000306D79335B5F707F7B7E600F40F00E9177
:10006000600F28F06D930F900F907894EDC06FEFB4
:10007000F9CF71E00E91033080F311960FEF05B9BF
:100080006D9301E08030900709F410C00F900F903D
:100090007894DAC070E00E910330F8F2119600E027
:1000A00005B96D930F900F907894CEC0E8946FEFE0
:1000B0006D93CD01A0E0B2E08A1B9B0BC0E0D1E0C4
:1000C00000E010E01395163038F00D902D91029756
:1000D00070F0223370F4F9CF000F2D912E3108F01B
:1000E00003952D91029718F0223318F4EBCF80E09E
:1000F00090E0110F110F110F110F110F012B02C002
:1001000080E090E0002319F401E009930FC0F0E0D3
:10011000E2E11591E63320E0F20719F401E00993DA
:1001200005C00117B1F7B39604910993782F792B85
:1001300039F67C2F7050C0E0D1E060E0772329F4DD
:1001400001E00BB910C00FEF05B96395671711F403
:10015000299A01C029986A95662311F4289A01C04A
:10016000289808810BB90F900F9078946CC0689410
:1001700071E00FE70BB90FEF05B9A0E0B2E00F9007
:100180000F90789461C063956717B9F02196772333
:1001900029F401E00BB910C00FEF05B9639567179B
:1001A00011F4299A01C029986A95662311F4289AB6
:1001B00001C0289808810BB963956A951895662344
:1001C000B9F021976A95772329F401E00BB910C0A3
:1001D0000FEF05B96395671711F4299A01C02998A3
:1001E0006A95662311F4289A01C0289808810BB9F2
:1001F00018950FEF0DBF08E00EBF0FE70AB903E037
:1002000004B900E007B90FE008B902E00093680004
:100210000FE000936C00789400E0009380000CE005
:100220000093810002E00093890000E700938800BA
:10023000E894C0E0D1E0A0E0B2E070E060E001E06E
:100240000BB90FEF05B9FFCF60E000E00093850028
:100250000093840002E006BB06B301FFFDCF6F3FB1
:10026000A1F36395F2CF70FF04C070E013CF309B11
:10027000FACF3099FECE319919CF1895309977CFB2
:0E02800032999DCF33997FCF18958EF3F7CF2B
:00000001FF
