:020000020000FC
:02000000E0C05E
:1000100028C141888A642082668040876584434283
:1000200067868D626021618163898B8CAFA7A3A1F4
:10003000A0B0B8BCBEBF777C395E79713D76301E0A
:10004000753815373F736B336D783E3E2A766E5B9D
:10005000065B4F666D7D077F6F3F71E00FEF05B95F
:100060006D9301E08030900709F404C00F900F9069
:100070007894D9C0E8946D93CD01A0E0B2E08A1BDA
:100080009B0BC0E0D1E000E010E01395163038F093
:100090000D902D91283C80F40297A0F0F9CF000F2D
:1000A0002D91223308F003952D91283C28F40297D6
:1000B00008F0EBCF80E090E0110F110F110F110F3E
:1000C000110F012B80E090E0002319F401E0099367
:1000D0000FC0E9E0F0E01591ED3200E0F00719F40F
:1000E00001E0099305C00117B1F7B4960491099393
:1000F000782F792B41F67C2F7050772329F400E07C
:100100000BB90FE108B90FC0C03011F4299A01C032
:10011000299800E0070F0A95C01711F4289A01C02A
:10012000289808810BB90F900F9078947BC070E0ED
:1001300000E005B96D930F900F90789474C06894A7
:1001400071E00FEE0BB90FEF05B90F900F90789497
:100150006AC000E0070F0A95C017B9F0219677230F
:1001600029F400E00BB90FE108B90FC0C03011F459
:10017000299A01C0299800E0070F0A95C01711F4C9
:10018000289A01C0289808810BB91895C030B9F099
:100190002197772329F400E00BB90FE108B90FC0CC
:1001A000C03011F4299A01C0299800E0070F0A9580
:1001B000C01711F4289A01C0289808810BB9189526
:1001C000FFCF0FEF0DBF08E00EBF0FEE0AB903E03F
:1001D00004B900E007B90FE108B902E00093680034
:1001E0000FE000936C00789400E0009380000CE036
:1001F0000093810008E10093890009E600938800DC
:10020000E894C0E0D1E0A0E0B2E070E060E000E09F
:10021000009385000093840002E006BB06B301FF53
:10022000FDCF0000FFCF60E000E006BD02E005BBAF
:1002300005B301FFFDCF6F3FB9F36395F5CF70FFB5
:1002400004C070E074CF309BFACF309906CF31995B
:1002500011CF1895309973CF32997BCF339996CFC0
:0602600018958EF3F7CFA4
:00000001FF
